:020000040000FA
:10000000E88AFF1F25040000110F000033040000E0
:10001000350400003704000039040000000000002F
:100020000000000000000000000000003B04000091
:100030003D040000000000003F04000041040000F7
:100040006D0D000043040000430400004304000061
:100050004304000043040000430400004304000084
:100060004304000043040000430400004304000074
:100070004304000043040000430400004304000064
:100080004304000043040000430400004304000054
:100090004304000043040000430400004304000044
:1000A0004304000043040000430400004304000034
:1000B0004304000043040000430400004304000024
:1000C0004304000043040000430400004304000014
:1000D0004304000043040000430400004304000004
:1000E00043040000430400004304000043040000F4
:1000F00043040000430400004304000043040000E4
:100100004304000043040000430400007920000081
:1001100043040000430400004304000043040000C3
:1001200043040000430400004304000043040000B3
:1001300043040000430400004304000043040000A3
:100140004304000043040000430400004304000093
:10015000691300007D13000019140000430400001F
:100160004304000043040000430400004304000073
:100170004304000043040000430400004304000063
:100180004304000043040000430400004304000053
:100190004304000043040000430400000D16000067
:1001A000430400001D160000430400004304000047
:1001B0004304000043040000430400004304000023
:1001C0004304000043040000430400004304000013
:1001D0004304000043040000430400004304000003
:1001E00043040000430400004304000043040000F3
:10040000FFFFFFFFFFFFFFFFFFFFFFFFFEFFFFFFFD
:10041000DFF80CD000F06CFC0048004755350000B8
:10042000E88AFF1F0748804707480047FFF7FEFF9D
:10043000FEE7FEE7FEE7FEE7FEE7FEE7FEE7FEE794
:10044000FEE7FEE75120000011040000D2B201E0F7
:1004500000F8012B491EFBD270470022F6E710B5C9
:1004600013460A4604461946FFF7F0FF204610BD22
:10047000F0B480EA0102D40F4200B2EB410F02D285
:100480000246084611464A0042D0C30DDDB2C1F310
:10049000C752AD1A202D35DAC1F3160141F400021E
:1004A00004B15242C5F1200602FA06F12A41104475
:1004B000B3EBD05F23D0C4B1012DA0EBC35009DC56
:1004C000F0BC4FF0004202EAC352DBB200F500007C
:1004D00000F06BBB400000F1807000EBC350A0F156
:1004E000807040EAD170490009E0490841EAC071D2
:1004F000A0EBC35000F50000400800EBC350F0BC77
:1005000000F04ABB6142012202EB4101001BF6E709
:10051000F0BC704781F00041AAE780F00040A7E7F7
:1005200080EA010210B502F00043400022D04A00E8
:100530001FD0010E01EB1261C0F35600C2F3560248
:1005400040F4000042F40002A0FB022000047F39C6
:10055000140400D0401C50EA124001D44000491E4F
:10056000C2B20C0604EBD010401C4008802A02D016
:1005700003E0002010BD20F00100002900DA002077
:10058000184310BD30B480EA010202F0004530F09B
:10059000004221F0004013D090B1C30DD40DC2F33E
:1005A0001601C0F31600E41A41F4000140F4000201
:1005B0007D34914201D3641C00E04900002C02DA32
:1005C00030BC002070474FF400000023914201D35B
:1005D000891A034340084FEA4101F7D151B19142D2
:1005E00002D14FF0004105E002D24FF0010101E0DD
:1005F0006FF0010103EBC450284430BC00F0CCBACA
:100600002DE9FE4F804681EA0300C00F0C460090A2
:1006100021F0004123F00045B8EB0200A94105D2CA
:100620004046214690461C460B46024623F00040B9
:10063000104347D0270DC7F30A00C3F30A510290B5
:10064000401A019040286BDAC3F3130040F4801B7A
:100650000098924620B10023D2EB030A63EB0B0B08
:1006600001985946C0F14002504600F064FA06462F
:100670000D4650465946019A00F07CFA10EB0800EE
:100680006141002487EA115284EAE7731A4340D09B
:10069000009A62B3019A012A4FEA075215DC001B47
:1006A00061EB02014FF0004202EA0752CDE900423D
:1006B000001C41F5801132462B4600F0B3FA03B01E
:1006C000BDE8F08F40462146F9E7001B61EB0201CF
:1006D000001C41F5801300185B412018A2F500179B
:1006E00047EB030140EAD570B6196D4111E06D0882
:1006F0004FEA360645EAC0754FEA0752001B61EB28
:100700000201001C41F5801149084FEA3000001930
:10071000514132462B4603B0BDE8F04F00F073BAAA
:100720000098012240000023D0EB020263EBE0734B
:10073000009821464FEAE074B8EB000061EB040139
:10074000E9E783F000435BE781F0004158E72DE9DA
:10075000FE4F81EA030404F0004421F000410094BC
:100760004FF0000B23F0004350EA01045ED052EA40
:1007700003045BD0C3F30A54C1F30A552C44A4F21A
:10078000F3340194A0FB0254C1F3130141F480112E
:10079000C3F3130343F4801301FB024400FB034E35
:1007A000840A970A44EA815447EA8357A4FB0768FE
:1007B00002958D0A05FB07854FEA932C04FB0C5428
:1007C0002705029D4FEA065847EA1637B5EB08059C
:1007D0006EEB070C870E920E47EA811742EA8312EE
:1007E000A7FB0201B6EB0B0164EB00042B0D43EAFF
:1007F0000C335E1844EB1C50DA465146E7FB02010D
:10080000C5F313044FEA0B3343EA14534FEA04329F
:10081000019C43EA0603A4F10C040294009CCDE978
:1008200000B400F0FFF903B0BDE8F08F00200146EE
:10083000F9E72DE9F04D81EA030404F0004B21F0C3
:10084000004514464FF0000A23F0004150EA05022B
:1008500020D054EA01021DD0C5F30A570246C5F361
:100860001303C1F31300C1F30A5640F4801543F497
:100870008013A7EB0608101BD64608F2FD3873EB71
:10088000050002D308F1010801E092185B41B8F1BC
:10089000000F03DA00200146BDE8F08D00204FF480
:1008A0008011064684460EE0171B73EB050705D33F
:1008B000121B63EB050306434CEA010C49084FEA9F
:1008C000300092185B4150EA0107EDD152EA030073
:1008D00012D082EA040083EA0501084305D0101B08
:1008E000AB4106D20122002306E000224FF0004374
:1008F00002E06FF0010253101AEB06004CEB0851B6
:1009000010EB0A0041EB0B01BDE8F04D00F07BB9A4
:10091000C10F80EAE0700844CA079623002100F066
:1009200044B996230022114600F03FB90EB5C10F1D
:1009300080EAE0700844CA07002140F233438DE8A2
:100940000E000A460B4600F06DF903B000BD0EB56F
:1009500040F2334102910021CDE900110A460B46D5
:1009600000F060F903B000BD20F00040C10DC0F3FD
:10097000160040F400007F2901DA00207047962914
:1009800003DCC1F19601C840704796398840704732
:10099000C1F30A5210B5C1F3130140F2FF3341F421
:1009A00080119A4201DA002010BD40F233439A428E
:1009B000A2F2334203DC524200F0CCF810BD90406A
:1009C00010BD00F0004230F000400AD0C10D01F52A
:1009D0006071C0F3160042EA0151C208400711439A
:1009E000704700200146704730B5041E71F10004C5
:1009F00004DB4FF00044404264EB0101141E73F12C
:100A0000000405DB1C464FF00043524263EB040335
:100A10008B4208BF824230BD30B5041E71F1000424
:100A200004DB4FF00044404264EB0101141E73F1FB
:100A3000000405DB1C464FF00043524263EB040305
:100A4000994208BF904230BD01F0004330B421F01C
:100A5000004150EA010206D00A0DA2F56072C1F30E
:100A60001301002A02DC30BC00207047440F44EA26
:100A7000C104C100E01830BC00EBC25000F08CB8DB
:100A8000002801DBC0F10040002901DBC1F1004179
:100A900081427047002801DBC0F10040002901DBE2
:100AA000C1F100418842704730B50B460146002035
:100AB0002022012409E021FA02F59D4205D303FA20
:100AC00002F5491B04FA02F52844151EA2F10102A1
:100AD000F1DC30BD2DE9F05F0546002092469B46D3
:100AE00088460646814640241BE028464146474644
:100AF000224600F02FF853465A46C01A914110D3AF
:100B000011461846224600F016F82D1A67EB010828
:100B10004F4622460120002100F00DF817EB000996
:100B20004E41201EA4F10104DFDC484631462A462E
:100B30004346BDE8F09F202A04DB203A00FA02F188
:100B4000002070479140C2F1200320FA03F31943BB
:100B500090407047202A04DB203A21FA02F000215D
:100B6000704721FA02F3D040C2F1200291400843BD
:100B700019467047202A06DBCB17203A41FA02F0CB
:100B800043EAE07306E041FA02F3D040C2F12002EA
:100B900091400843194670470029A8BF7047401C80
:100BA000490008BF20F00100704710B4B0FA80FC83
:100BB00000FA0CF050EA010404BF10BC704749B1C0
:100BC000CCF1200421FA04F411FA0CF118BF012130
:100BD00021430843A3EB0C01CB1D4FEA00614FEA10
:100BE000102042BF002010BC704700EBC3501044DF
:100BF0000029A4BF10BC7047401C490008BF20F06A
:100C0000010010BC704710B5141E73F1000408DA1F
:100C1000401C41F1000192185B411A4301D120F0C0
:100C2000010010BD2DE9F04D92469B4611B1B1FA7D
:100C300081F202E0B0FA80F220329046FFF77BFFAB
:100C400004460F4640EA0A0041EA0B0153465A4661
:100C5000084313D0114653EA010019D0C8F14002ED
:100C60005046FFF777FF05460E4650465946424626
:100C7000FFF761FF084305D0012004E02046394614
:100C8000BDE8F08D0020054346EAE0762C4337436B
:100C90000A986305E40AA0EB08000022FD0A44EA72
:100CA00047540A3002D500200146E9E70105101932
:100CB0006941DDE9084500196941BDE8F04DA2E749
:100CC000C1F30A52C1F3130140F2FF3341F4801122
:100CD0009A4202DA00200146704740F233439A42BA
:100CE000A2F2334202DC5242FFF734BFFFF723BFC8
:100CF000064C074D06E0E06840F0010394E8070069
:100D000098471034AC42F6D3FFF786FB74570000C7
:100D10009457000070B58C1810F8015B15F00703AC
:100D200001D110F8013B2A1106D110F8012B03E084
:100D300010F8016B01F8016B5B1EF9D12B0705D48C
:100D40000023521E0DD401F8013BFAE710F8013BD5
:100D5000CB1A921C03E013F8015B01F8015B521EF1
:100D6000F9D5A142D8D3002070BD000010B50448C9
:100D7000406A40F001000249486202F093FE10BD53
:100D8000008000404CF220500449C8814DF62810E4
:100D9000C8814FF4E97008807047000000200540CA
:100DA00000B58BB0282101A8FFF757FB082001F000
:100DB00003FE2A2001F000FE0A2001F0FDFD2C2098
:100DC00001F0FAFD0B2001F0F7FD2E2001F0F4FDFB
:100DD000112001F0F1FD0C2001F0EEFD2D2001F0BD
:100DE000EBFD312001F0E8FD40F2EE2006490880DD
:100DF00048808880C880088148818881C8810882AD
:100E000048820BB000BD0000C079FF1F70B50546D9
:100E10000C4625B1012D43D0022D73D159E03B483A
:100E2000C06B40F080703949C863082C35D2DFE8C8
:100E300004F0040A10161C22282E4FF48061412071
:100E400002F064FD2AE04FF48061422002F05EFD72
:100E500024E04FF48061432002F058FD1EE04FF47F
:100E60008061442002F052FD18E04FF4806164205C
:100E700002F04CFD12E04FF48061652002F046FD67
:100E80000CE04FF48061662002F040FD06E04FF474
:100E90008061672002F03AFD00E070BD00BF31E0E4
:100EA0001A48C06B40F000701849C86314B1012C97
:100EB0000CD105E04FF440710C2002F027FD06E054
:100EC0004FF440710D2002F021FD00E0E5E700BF86
:100ED00018E00E48006B40F080700C49086314B1B4
:100EE000012C0CD105E04FF44071322002F00EFDD0
:100EF00000BF4FF44071332002F008FD00E0CCE762
:100F000000BF00BF00BF00BFC7E700000080044073
:100F1000704700F01F02012191404209920002F146
:100F2000E022C2F80011704710B5002807DA0A075E
:100F3000140E054A00F00F031B1FD45403E00A07E8
:100F4000130E024A135410BD18ED00E000E400E057
:100F500070B500240CE0002506E00020074901EBF5
:100F600085110855681CC5B2802DF6DB601CC4B223
:100F7000082CF0DB00F0C0F870BD00006401FF1F1A
:100F800007E040F2375100BF0A00A1F10101FBD197
:100F9000401E0028F5D17047F0B5144600267F2882
:100FA00001DC3F2900DDF0BD0B46CF1701EB577781
:100FB000FF10C7F10707FAB2CF1701EB5777FF1001
:100FC000A1EBC707FDB2C5F107070123BB40DEB2A5
:100FD0004CB10A4B03EB80139B5C3343074F07EB89
:100FE0008017BB5408E0054B03EB80139B5CB343B5
:100FF000024F07EB8017BB5400BFD4E76401FF1F0B
:101000002DE9F04706460F4690469946DDF820A0A8
:1010100034460CE03D4606E0524629462046FFF79E
:10102000BBFF681CC5B24D45F6DD601CC4B244452B
:10103000F0DD00F061F8BDE8F087000010B500F0C9
:101040007DF801202B49C864002048646420FFF724
:1010500097FF012027494864AE2001F01BF8D520F6
:1010600001F018F8802001F015F8A82001F012F81E
:101070003F2001F00FF8D32001F00CF8002001F020
:1010800009F8402001F006F88D2001F003F8142043
:1010900001F000F8202000F0FDFF022000F0FAFF30
:1010A000A12000F0F7FFC02000F0F4FFDA2000F0EC
:1010B000F1FF122000F0EEFF812000F0EBFFCF20C7
:1010C00000F0E8FFD92000F0E5FFF12000F0E2FF9A
:1010D000DB2000F0DFFF402000F0DCFFA42000F068
:1010E000D9FFA62000F0D6FFAF2000F0D3FFFFF716
:1010F0002FFF10BD0010FE4370B5002418E004F16E
:10110000B001C8B200F0C6FF002000F0C3FF1020FD
:1011100000F0C0FF002507E0074901EB8511085DDD
:1011200000F0BFFF681CC5B2802DF5DB601CC4B2A7
:10113000082CE4DB70BD00006401FF1F10B5012224
:101140001146532002F014F801221146522002F0F9
:101150000FF801221146512002F00AF8012211462F
:10116000502002F005F810BD2DE9F84F80460F46DB
:1011700016461C46BA462046E31704EB5373DB10B1
:1011800021464FEAE47C04EB5C7C4FEAEC0CA4EBD8
:10119000CC0CBCF1000F02D04FF0010C01E04FF07D
:1011A000000C6344224604EBD27C4FEA6C0C03FB38
:1011B0000CF303F0FF0BA6F12000C6B200254EE0B1
:1011C0000C2C07D106EB4600274901EB8000405D5F
:1011D000009013E0102C05D1244800EB0610405D70
:1011E00000900BE0182C07D106EBC600204901EB5C
:1011F0008000405D009001E0BDE8F88F4FF00009ED
:1012000027E0009800F0800028B1394640460A9A4D
:10121000FFF7C2FE09E00A9808B9012000E00020AB
:10122000024639464046FFF7B7FE00984006000EDA
:101230000090781CC7B2A7EB0A00A04205D1574620
:1012400008F1010000F0FF0806E009F1010000F0DC
:10125000FF09B9F1080FD4DB00BF681CC5B25D45BA
:10126000AEDB00BFC8E70000B43F00002844000028
:10127000184A00002DE9FF4F81B0074691461E46EF
:101280000E9D4FF0000A002439E0301B401EC1B211
:101290000A2002F091FAB9FBF0F00A21B0FBF1F25A
:1012A00001FB1208BAF1000F16D1701EA04213DD27
:1012B000B8F1000F0ED10120AB4605EBDB714910F0
:1012C00001FB04710090C8B22B4620220299FFF75F
:1012D0004BFF12E04FF0010A0120AB4605EBDB713A
:1012E000491001FB04710090C8B208F13001CAB284
:1012F0002B460299FFF738FF00BF601CC4B2B4420E
:10130000C3DB05B0BDE8F08FF8B506460F461546BD
:101310001C4621E004EBD4714910C1F18001B142B7
:1013200002DA00263819C7B2C4F14000B84204DA24
:10133000002006460746FFF70BFE012000902A78A2
:10134000234639463046FFF70FFF204604EBD071A5
:1013500006EB6101CEB26D1C28787E2802DC28786D
:101360002028D7DAF8BD00000348006840F00101EA
:1013700001480160704700000C71034010B51B4824
:10138000006840F001011948016019480078401CCC
:101390001749087017480078401C1649087016480D
:1013A0000078401C1449087000F04AF9134A1449A7
:1013B000144801F01BFC0F480078142808DB0020BB
:1013C0000C490870104B114A1149124800F06CFD8D
:1013D0001B2001F0B7FE40B107480078052804DB68
:1013E00000200549087002F0CDFC10BD1C710340BF
:1013F0002C00FF1F2D00FF1F2E00FF1F9600FF1F58
:101400009400FF1F8800FF1F7000FF1F6C00FF1F6C
:101410006800FF1F7800FF1F10B56948006840F0A2
:1014200001016748016067A000F042FE022001F060
:10143000D3FD00220721104601F00CFD4FF4167277
:101440000521002001F006FD322002F069FB002298
:101450000721104601F0FEFC00220521104601F094
:10146000F9FC322002F05CFB022001F0B5FD4FF4E4
:1014700075720121084601F0EDFC0022072110469B
:1014800001F0E8FC40F2E7320521002001F0E2FC27
:1014900000BF022001F0A8FD4C498842F9DC02207F
:1014A00001F09AFD022001F09FFD0446214648A06C
:1014B00000F0FEFDC8220721002001F0CBFC002235
:1014C0000521104601F0C6FCC82002F029FB0022CD
:1014D0000721104601F0BEFC00220521104601F054
:1014E000B9FC40F21C720121084601F0B3FC40F245
:1014F000E7320721002001F0ADFC00220521104653
:1015000001F0A8FC00BF022001F06EFD6428FADBA8
:10151000022001F061FD022001F066FD0446214633
:1015200030A000F0C5FD4FF4AF620121084601F084
:1015300091FC40F2E7320721002001F08BFC0022F1
:101540000521104601F086FC00BF022001F04CFD91
:10155000B0F5617FF9DB022001F03EFD022001F0D1
:1015600043FD044621461FA000F0A2FD4FF4757212
:101570000121084601F06EFC00BF022001F034FD9D
:1015800046F290518842F8DB022001F025FD02204E
:1015900001F02AFD0446214616A000F089FD4FF413
:1015A000AF620121084601F055FC462000F01F0201
:1015B00001219140144A430942F8231000BF10BD95
:1015C0002C710340706974320D0A000038E6FFFF89
:1015D0002066746D325F2D373030303D25640D0A42
:1015E000000000002066746D325F363030303D25DB
:1015F000640D0A002066746D325F32353030303D44
:1016000025640D0A0000000080E100E04FF0FF308B
:101610000149086070470000A090044010B54FF0E9
:10162000FF300649086001F045FE08200349A03953
:10163000C1F8A00010200149086010BDA0B004400E
:101640002DE9F04FBDB04FF0000A142114A8FEF7A9
:1016500004FF00BF62E032220221082001F091F96C
:1016600000B223A921F81A00322202210A2001F037
:1016700088F901B20DF1960020F81A1032220221E9
:101680002A2001F07EF901B228A820F81A1032228F
:1016900002212E2001F075F901B20DF1AA0020F807
:1016A0001A10322202212D2001F06BF901B22DA86F
:1016B00020F81A10322202210C2001F062F901B246
:1016C0000DF1BE0020F81A10322202210B2001F089
:1016D00058F901B232A820F81A10322202212C2027
:1016E00001F04FF901B20DF1D20020F81A103222A8
:1016F0000221112001F045F901B237A820F81A1093
:1017000032220221312001F03CF901B20DF1E60054
:1017100020F81A100AF101000FFA80FABAF1050F49
:1017200099DB4FF0000A24E00AEB8A0023A901EBC1
:10173000400040880AEB8A0123AA02EB4101898814
:1017400008440AEB8A0102EB4101C988084400B24F
:1017500019A921F81A0019A830F91A00032190FBE1
:10176000F1F000B21EA921F81A000AF101000FFAE7
:1017700080FABAF10A0FD7DB4FF0000A16E01EA874
:1017800030F91A000A2190FBF1F000EB80004000D4
:1017900000B2FE4921F81A00084630F81A0014A9D0
:1017A00021F81A000AF101000FFA80FABAF10A0FC3
:1017B000E5DB4FF0000A48E0F54931F81A10F54A28
:1017C00032F81A20881AFFF7A3F8044614A931F951
:1017D0001A10F04A32F81A20881AFFF799F80546CD
:1017E0002146FEF7CFFE0AA941F82A0051F82A0047
:1017F000FFF7E7F8044600221346FFF7F5F803D891
:10180000E5480AA941F82A000AA951F82A00FFF779
:10181000D8F804460022E14BFFF7FEF804D24FF05F
:101820007E500AA941F82A000AA850F82A10DC487C
:10183000FEF776FE0446FFF797F8C0B2D34921F8C9
:101840001A000AF101000FFA80FABAF10A0FB3DBAD
:10185000CE48B0F900001E2814DCCC49B1F90400D0
:10186000FFF764F80646CF4ACF4BFEF770FF0446F9
:101870000022CE4BFFF7D0F804D3C448B0F90800DB
:101880001E2871DDC148B0F9020063286CDABF4937
:10189000B1F90400FFF74AF80646C24AC24BFEF708
:1018A00056FF04460022C24BFFF79EF85CD2B748B1
:1018B000B0F906006328E9DA4FF0000A3DE0B348CA
:1018C00030F91A00BB490988884207DDAF4830F873
:1018D0001A00B8490880B84981F800A0AB49B64A57
:1018E000127831F91200FFF721F804460D46A74996
:1018F000B1F90400FFF71AF88046AA4AAA4BFEF78E
:1019000026FF064622462B46FFF786F811D29F494E
:10191000B1F90400FFF70AF80646A24AA24BFEF707
:1019200016FF0446FFF734F8A24908800220A249B6
:1019300008700AF102000FFA80FABAF1050FBEDB57
:1019400000209C4908809C48007820B1022819D0CA
:10195000042831D11AE08D48B0F90400132804DAC4
:101960000920964908700CE045E08848B0F9040069
:10197000152803DA00209149087002E001208F4900
:1019800008701AE003208D49087016E07F48B0F90E
:101990000400132803DA0A20884908700BE07B480A
:1019A000B0F90400152803DA05208449087002E024
:1019B00004208249087000E000BF00BF7348B0F9FE
:1019C00000001E281BDA7148B0F908001E2816DA3C
:1019D0007A480078092803D0784800780A280ED180
:1019E0006A48B0F902006949B1F90610884203DD7E
:1019F00009207249087002E00A20704908701D2011
:101A000001F0A0FB60B36148B0F90A00462807DD89
:101A10005E48B0F90E00462802DD082067490870CC
:101A20005A48B0F9100046280CDD5848B0F90200B9
:101A3000462804DC5548B0F90600462802DD072098
:101A40005E4908705E480078401C5D490870084691
:101A500000788F2804DDA120087001205949087002
:101A60005848007800287DD0544800780B287AD256
:101A7000DFE800F00A0B0C0D0F0ED8D9EE06D400EB
:101A800051485249086008E100BF00BF00BF00BFD5
:101A900000BF3E49B1F900103C4AB2F9082088184D
:101AA000FEF736FF07464A4801683846FEF738FD1C
:101AB0000646FEF786FF04460D463449B1F9040098
:101AC000FEF734FF374A384BCDE90001FEF73FFE01
:101AD00006460F462D49B1F902102C4AB2F90620EC
:101AE0008818FEF715FF01903A4801680198FEF743
:101AF00017FD8346FEF765FF32463B46CDE90201FE
:101B0000FEF77EFD804622462B46FEF779FDCDE9A5
:101B100006011E49B1F90800FEF7FAFE83462E4879
:101B200001685846FEF7FCFC80461849B1F90000F0
:101B3000FEF7EEFE8346294801685846FEF7F0FCA2
:101B400081464146FEF7E6FC0746214801683846D3
:101B5000FEF7E6FC05460D49B1F90600FEF7D8FE92
:101B6000834601E09AE097E01B4801685846FEF77B
:101B7000D7FC80460549B1F90200FEF7C9FE83464D
:101B8000164801685846FEF7CBFC29E08479FF1F10
:101B9000C079FF1FAC79FF1F6F12833A0000F03F3E
:101BA0000000C842CDCCCCCCCCCCEC3F00003E40B9
:101BB00000C058401201FF1F1401FF1F1501FF1F35
:101BC0000E01FF1F0F01FF1F0000D2438800FF1FFF
:101BD000F400FF1FF000FF1F0001FF1FFC00FF1FAC
:101BE00081464146FEF796FC07465F480168384645
:101BF000FEF796FC06462946FEF73AFC0446FEF739
:101C0000E0FECDE90401DDE90623FEF712FECDE991
:101C10000801FEF719FF554908603EE05448534952
:101C200008603AE039E000205249087052490870D3
:101C30005248B0F90A005149B1F90E10884203DD4B
:101C40004F484A49086002E04E484849086024E08D
:101C50004A49B1F90210494AB2F904201144474AED
:101C6000B2F906208818FEF753FE05464349B1F93C
:101C70000210424AB2F90620881AFEF749FE0646CB
:101C8000414801683046FEF74BFC04462946FEF702
:101C900079FC3649086000E000BF00BF3B4800788F
:101CA0000A2803D039480078092806D13848008826
:101CB000FEF737FE3749086041E037490988344A62
:101CC0001288881AFEF724FE099034480088FEF72F
:101CD00028FE81462548006801F062FD834649469A
:101CE000FEF71EFC07462E49FEF74CFC06464FF059
:101CF0007E51FEF7C5FE11D228480088FEF711FE7E
:101D000007461A48006801F04BFD81463946FEF748
:101D100007FC06462249FEF735FC01E04FF07E50F5
:101D200005460999FEF7FCFB04461B480088FEF7B0
:101D3000F8FD80462146FEF7EDFB164908601820A5
:101D400001F000FA68B111490978032902D142F281
:101D5000283101E042F228310846FEF7D9FD0D494D
:101D600008603DB0BDE8F08FF000FF1F8800FF1F46
:101D70000000D2C30E01FF1F0F01FF1F8479FF1F58
:101D8000CDCCCC3ECDCCCCBEF800FF1F1501FF1F43
:101D90007E00FF1F7800FF1F7C00FF1F9400FF1FC5
:101DA0000000D24310B50022104B196400230F4CE1
:101DB000E36400BF12E000230C4CE36400F08003F6
:101DC00013B10123A36402E00023084CA3640123A0
:101DD000064CE3644306180E531CDAB2082AEADB09
:101DE0000123024CE364236410BD00000010FE4395
:101DF00010B54FF0FF30294948642948407820F059
:101E00000200274948700846407840F0200048709A
:101E1000BA2008700846C07800F01F00C870084655
:101E2000407900F0BF00487100BF1D48807900F084
:101E300010000028F9D100BF1948807900F00C008B
:101E40000828F9D117480468006840F47F00154954
:101E5000086000F0A7FF1348046000BF10488079B5
:101E600000F020000028F9D000BF0D48807900F074
:101E700040000028F9D01A200949087000BF08481E
:101E8000807900F00C000C28F9D100BF044880795B
:101E900000F040000028F9D010BD00000080044090
:101EA0000040064000F001402DE9F04F85B00546A6
:101EB0000E46174698464FF00009002004908246CF
:101EC000039083460024022001F08EF8834602200E
:101ED00001F082F84FEA6B00FEF71AFD02902968C4
:101EE000FEF71BFB04464E4801682046FEF712FB36
:101EF00002903168FEF714FB049021463868FEF723
:101F00000FFB8246464801684FF08040FEF708FB11
:101F100021460090FEF701FB0190424801680198BC
:101F2000FEF7A6FA0290D8F80010FEF7F9FA03902F
:101F30003B4800683B490860394804603A495046CC
:101F4000FEF7A8FD01D2384800E0504682463749E6
:101F50005046FEF795FD01D2344800E050468246D7
:101F600051460498FEF784FA02900399FEF780FA2E
:101F700081462F4801684846FEF77AFA81462C4888
:101F8000C0F800902B494846FEF784FD01D229484D
:101F900000E04846814600214846FEF771FD01D227
:101FA000002000E048468146BBF5967F01DADFF865
:101FB0008890224922480068FEF762FD01D221483C
:101FC00000E04846814620491D480068FEF758FD5C
:101FD00001D2002000E0484681461C4918480068AC
:101FE000FEF74EFD0AD200220721104600F032FF14
:101FF000FA220521002000F02DFF0DE04846FEF7F3
:10200000B3FC024607210290002000F023FF0022CB
:102010000521104600F01EFF05B0BDE8F08F00005E
:102020005001FF1F5401FF1F00806D4400806DC4EC
:102030005801FF1F00C07944008022440000B442D0
:102040000401FF1F00008C43000028420000A04153
:1020500010B50848006840F4700006490860FEF7B3
:1020600091FEFFF7C5FE01221146042001F080F821
:1020700010BD000088ED00E010B50548007900F0C3
:10208000200008B101F064FB0148007910BD000098
:1020900000D0064010B5044600212046FFF782FE1E
:1020A00010BD10B5044601212046FFF77BFE10BD90
:1020B0000FB4054B10B503A9044A029800F0CAF802
:1020C00010BC5DF814FB0000412E00006001FF1FF2
:1020D00002E008C8121F08C1002AFAD170477047F1
:1020E000002001E001C1121F002AFBD1704700004F
:1020F0002DE9FF5FDDE90220010DDDF838B0024374
:1021000018D044F61050A1F2FF3141430D140F983E
:10211000012820D0A5EB0B00401C5FEA000A4FF01D
:102120000004474EDFF81C91A046504616D5CAF170
:10213000000728E00F98012443A2012808D00021BD
:1021400000980F9BC0E90021C0E90243BDE8FF9F52
:102150006FEA0B01F4E7CBF10000DEE7074612E07F
:10216000F80707D02246334640464946FEF7EFFAC5
:10217000804689462246334610461946FEF7E7FA5E
:1021800004460E467F10002FEAD1DDE90201BAF1C4
:10219000000F42464B4602DAFEF7D9FA01E0FEF79D
:1021A00048FB04460E460022284BFEF735FC03D8B8
:1021B0004FF0FF30014607E00022254B2046314614
:1021C000FEF71EFAFEF77CFD102409E0002C0ADB66
:1021D0000A220023FEF77EFC019B30321A55641E52
:1021E00050EA0102F2D1641C019AC4F111031444B3
:1021F0000F9A012A03D0012208430DD10AE00843B7
:1022000004D000204FF0110B0F9080E7A3EB0B05DB
:102210006D1E0DE05B4504DD4FF0000205F1010588
:1022200004E003DA4FF00002A5F10105002AECD02A
:1022300000980F99C0E90231C0E9004586E7000027
:10224000000024400000F03F300000000000F04398
:102250000000E03F2DE9FF4F95B09B4689460646BA
:1022600000250FE2252877D100242746F84A0121CE
:10227000059400E0044316F8013F203B01FA03F007
:102280001042F7D130782A2811D06FF02F03307820
:10229000A0F13002092A16D8059A44F0020402EB94
:1022A000820203EB42021044761C0590EFE759F8D6
:1022B000042B0592002A03DA504244F4005405909E
:1022C00044F00204761C30782E2816D116F8010F3F
:1022D00044F004042A280DD06FF02F023078A0F1CA
:1022E0003003092B09D807EB870302EB4303C71818
:1022F000761CF3E759F8047B761C30786C280FD0F5
:1023000006DC4C2817D068280DD06A2814D104E0C8
:10231000742810D07A280FD10DE044F400140AE09C
:1023200044F4801401E044F440147278824202D1F3
:1023300004F58014761C761C307866280BD013DCEC
:10234000582877D009DC002875D04528F6D04628D3
:10235000F4D047281AD19DE118E0632835D06428CD
:1023600079D0652812D195E1702873D008DC6728F0
:10237000F1D069286FD06E280DD06F2806D1B5E056
:1023800073282CD0752875D0782874D05A461799A0
:1023900090476D1C75E1C4F30250022809D0032850
:1023A0000DD0D9F8001004280DD00D6009F10409F2
:1023B00067E1D9F80010EA17C1E90052F6E7D9F849
:1023C00000100D80F2E70D70F0E719F8041B8DF88E
:1023D000001000208DF80100EA46012003E059F8C2
:1023E00004AB4FF0FF3061074FF0000102D40DE065
:1023F00008F101018846B9420FDA8045F8DB1AF886
:1024000008100029F4D108E008F101018846814252
:10241000FADB1AF808100029F6D105985B46A0EB04
:10242000080721463846179A00F094FA284400EB32
:10243000080507E04DE029E10DE01AF8010B5A46C6
:1024400017999047B8F10108F7D25B462146384604
:10245000179A13E142E00A220092C4F302524FF0AD
:10246000000A022A08D059F804CB032A4FEAEC717B
:102470000AD00DE029E02AE009F1070121F0070266
:10248000F2E802C1914609E00FFA8CFC4FEAEC71C8
:10249000042A03D14FFA8CFC4FEAEC71002907DAC9
:1024A0000A460021DCF1000C61EB02012D2202E062
:1024B000220504D52B228DF80420012203E0E20737
:1024C00001D02022F7E7904659E00A2102E01022CD
:1024D0000DE010214FF0000A00910BE010224FF0A8
:1024E000000A44F004040827009203E008224FF099
:1024F000000A0092C4F30252022A05D059F804CB14
:102500000021032A08D009E009F1070121F00702A0
:10251000F2E802C1914605E01FFA8CFC042A01D1C1
:102520000CF0FF0C4FF00008220728D5702806D0C9
:10253000009B83F0100353EA0A0305D00EE040220B
:102540008DF80420012208E05CEA010206D0302266
:102550008DF804208DF8050002229046009B83F040
:10256000080353EA0A030AD15CEA010201D16207B7
:1025700005D530228DF804204FF001087F1E582821
:1025800004D034A003900EA802900DE036A0F9E725
:1025900053466046009AFEF79DFA84460398825C93
:1025A0000298401E029002705CEA0100F0D102988D
:1025B00006A9081A00F1200A600702D524F4803425
:1025C00000E00127574502DDA7EB0A0000E00020EC
:1025D00000EB0A01009005984144401A0590E00381
:1025E00006D45B462146179A059800F0B3F90544D6
:1025F000002706E001A85A46C05D179990476D1C58
:102600007F1C4745F6DBE0030CD55B462146179A55
:10261000059800F09FF9054404E030205A461799C8
:1026200090476D1C0099481E00900029F5DC08E0D9
:10263000029802995A460078491C029117999047CE
:102640006D1CBAF10001AAF1010AF1DC65E100009C
:102650000928010030313233343536373839616278
:10266000636465660000000030313233343536373C
:1026700038394142434445460000000000F058F913
:102680000544761C307800287FF4ECAD19B028465C
:10269000BDE8F08F620700D4062709F1070222F097
:1026A000070CFCE80223E14603F000485FEA080C4F
:1026B00002D00FF2702C0DE05FEA045C02D50FF23D
:1026C000682C07E05FEAC47C02D00FF2602C01E0C6
:1026D000AFF2700C4FF0FF3823F00043CDF850C03C
:1026E00065280CD006DC452809D046281DD047288F
:1026F0003DD13DE0662818D067287ED138E0002122
:10270000112F01DB112000E0781CCDE9000106A9A2
:102710000EA8FFF7EDFCDDE90F010E9A03910021F1
:10272000009207F1010A04914DE04FF0004000973C
:10273000CDE9011006A90EA8FFF7DAFCDDE90F02CA
:1027400003920E9B11990022DDF80CA000930492D5
:1027500011B9791C00EB010AB7EB0A0004D4C0F1EF
:10276000FF3007F1010A0490AAEB0700019044E052
:10277000012F00DA01270021112F01DD112000E0D7
:102780003846CDE9000106A90EA8FFF7B1FCDDE946
:102790000F010E9A0391002104910092BA4621077D
:1027A0000CD40399514500DA8A46BAF1010F05DDD0
:1027B000009AAAF10101515C302908D0B84202DA2E
:1027C00010F1040F06DA0121CDE9011015E0AAF19C
:1027D0000101E9E7002805DC049901440491AAEB12
:1027E000000102E0411C514500DD8A460499401A6F
:1027F000401C01904FF000400290200704D4019843
:10280000504501DBCDF8048000208DF84F00029880
:102810000DF14F07B0F1004F25D02B200E900298FC
:102820004FF0020800280CDA404202902D200E9052
:1028300007E00A210298FEF737F93031029007F8D5
:10284000011DB8F10001A8F10108F2DC029800288E
:10285000EFD1791E0E980870307800F0200040F01B
:10286000450007F8020D12A8C01B00F107081498D4
:10287000007800B1012000EB0A01019801EBE07142
:1028800005984144401A401E0590E00306D45B467B
:102890002146179A059800F05DF8054414980078D1
:1028A00018B15A46179990476D1CE00324D55B4632
:1028B0002146179A059800F04DF805441CE004984D
:1028C000002807DBDDE90301884203DD0098405C56
:1028D000179901E0179930205A469047049805F15E
:1028E0000105401C04900198401E019004D12E2047
:1028F0005A46179990476D1CBAF10001AAF1010AD6
:10290000DDDC05E017F8010B5A46179990476D1C5E
:10291000B8F10001A8F10108F4DC5B462146179AE2
:102920000598ABE62D0000002B0000002000000001
:102930002DE9F041044600251E461746880404D4BC
:1029400005E039462020B0476D1C641EF9D52846A5
:10295000BDE8F0812DE9F041044600251E46904671
:10296000C80301D5302700E02027880404D505E0FE
:1029700041463846B0476D1C641EF9D52846BDE86F
:10298000F0812DE9F04107468846154600240026CF
:1029900006E04146384600F0E7F80444701CC6B231
:1029A000AE42F6DBB4FBF5F4B4F57A7F01D94FF40F
:1029B0007A74A0B2BDE8F08170B50446651115B116
:1029C000012D1ED10EE06748C06B40F000606549E4
:1029D000C8630846806920F09000886108468069D5
:1029E00088610FE05F48006B40F000605D4908635C
:1029F0000846806920F41040886108468069886133
:102A000000E000BF00BF3F2C73D2DFE804F0525358
:102A1000A754A7A7A7A720252A2F34393E435748F4
:102A20004D5556A7A7A7A7A758A7A7595AA75B5CB4
:102A3000A75D5E63686D73787D82878C9196A09B9D
:102A4000A1A2A3A7A7A7A7A7A4A7A7A5A6000021FF
:102A5000202000F05BFF82E00021212000F056FFE3
:102A60007DE00021072000F051FF78E000210820E0
:102A700000F04CFF73E00021222000F047FF6EE0E1
:102A80000021232000F042FF69E00021402000F0F7
:102A90003DFF64E00021412000F038FF5FE00021AD
:102AA000982000F033FF5AE00021992000F02EFF1B
:102AB00055E000BF00BF00BF00BF00BF00BF00BFA8
:102AC00000BF4CE000BF00BF49E00021802000F0C3
:102AD0001DFF44E00021812000F018FF3FE00021AD
:102AE000822000F013FF3AE00021832000F00EFF67
:102AF00035E033E00021202000F008FF2FE0002126
:102B0000212000F003FF2AE00021242000F0FEFE37
:102B100025E00021252000F0F9FE20E000212620FC
:102B200000F0F4FE1BE00021272000F0EFFE16E08D
:102B300000212A2000F0EAFE11E000212B2000F005
:102B4000E5FE0CE00021112000F0E0FE07E000BFF0
:102B500000BF00BF00BF00BF00BF00E000BF00BF5C
:102B600070BD000000800440F0B505460E46002709
:102B70006C113146284600F01DF800BF0C4850F893
:102B80002400006800F080008028F7D1084850F841
:102B90002400006987B2064850F82400006820F03D
:102BA0008000034951F8241008603846F0BD000049
:102BB000503F000030B50A46411100F01F030C24BD
:102BC00004EA820444F05004074D55F82150AC60EB
:102BD0000424054D55F82150EC6043F04004024DAB
:102BE00055F821502C6030BD503F00002DE9F05FBA
:102BF00004460D4616464FF00008C14600272888B7
:102C0000FDF78FFE82462168FDF78AFC8046474922
:102C100020680968FDF77EFC82463088FDF781FE5A
:102C200083465146FDF77CFC814640492068086098
:102C300049464046FDF71CFC07463D493846FDF72E
:102C400029FF01D83A4800E0384607463949384656
:102C5000FDF716FF01D8374800E0384607463946E9
:102C60003548FDF757FC8246FDF77EFE3349088064
:102C7000192000F067FA00284FD031480078401C36
:102C80002F49087008460078142805DC2D48007884
:102C90002D490978884240D02B480078294908708E
:102CA0000020274908702948B0F9001028A0FFF734
:102CB000FFF92648B0F9021027A0FFF7F9F92348D9
:102CC000B0F9041026A0FFF7F3F92048B0F9061078
:102CD00025A0FFF7EDF91D48B0F9081024A0FFF773
:102CE000E7F91A48B0F90A1023A0FFF7E1F91748ED
:102CF000B0F90E1022A0FFF7DBF91448B0F910105C
:102D000021A0FFF7D5F91048017821A0FFF7D0F9ED
:102D10000A48018820A0FFF7CBF908480288012162
:102D2000084600F097F8BDE8F09F00004C01FF1F37
:102D30000000D2430000D2C30000AF44EC00FF1FEC
:102D40000901FF1F1101FF1F1501FF1F8479FF1FDC
:102D50005B305D3D256409005B315D3D2564090004
:102D60005B325D3D256409005B335D3D25640900F0
:102D70005B345D3D256409005B355D3D25640900DC
:102D80005B375D3D256409005B385D3D25640900C6
:102D9000665F733D2564090064743D2564090D0A6E
:102DA00000000000022323B1012B06D0022B0CD11E
:102DB00007E00B4A18205A210BE00A4A0E20552141
:102DC00007E0084A0E205E2103E0054A18205A2138
:102DD00000BF00BF044B5A64044B1871597170470F
:102DE000000013010000250100800440004006405F
:102DF00030B5114C646A012585402C430E4D6C6240
:102E0000C3F30E050D4C04EB4014E582C3F30E052D
:102E10000A4C04EB4014E583084C04EB4014216099
:102E2000064C04EB40142261034CE46844F00104B6
:102E3000014DEC6030BD000000800040009000407B
:102E400010B503460C46D9B2012000F08BFF18469E
:102E500010BD000030B50B4620B101280CD002286F
:102E60001ED113E0134C34F81040641C54434FF44B
:102E70007A75B4FBF5F114E00E4C34F81040641C84
:102E8000544342F21075B4FBF5F10AE0094C34F8F2
:102E90001040641C54434FF47A75B4FBF5F100E024
:102EA00000BF00BF044C54F820400C3404EBC304B2
:102EB000616030BD0C00FF1F583F00002DE9F05F3E
:102EC00004460E469246984631462046FDF79EFF40
:102ED0003E4800684FF47A71484300FB01FB4FEA1B
:102EE0001B40B0FBFAF5002701E0781CC7B245FA99
:102EF00007F00128F9DA072F01DDBDE8F09F2BFA72
:102F000007F0B0FBFAF085B2314820F8145024B134
:102F1000012C0DD0022C21D115E02846401C00FBCD
:102F200008F04FF47A71B0FBF1F01FFA80F916E067
:102F30002846401C00FB08F042F21071B0FBF1F093
:102F40001FFA80F90BE02846401C00FB08F04FF404
:102F50007A71B0FBF1F01FFA80F900E000BF00BF0A
:102F60001C4850F8240085601A4850F824000C30A2
:102F700050F8360020F00401164850F824000C30B8
:102F800040F836102821134850F824000C3040F83F
:102F9000361007F0070040F008000E4951F82410E1
:102FA000086000200B4951F82410C864094850F803
:102FB00024000C3000EBC600C0F804900020054946
:102FC00051F82410486000BF97E700000800FF1F79
:102FD0000C00FF1F583F00000021024A52F8202039
:102FE00051607047583F00000146034850F82100E7
:102FF000406800B270470000583F000010B504461A
:10300000012C02D0022C22D110E03048C06B40F0DD
:1030100000702E49C8634FF4E0610C2000F076FC8C
:103020004FF4E0610D2000F071FC11E02748006BC7
:1030300040F08070254908634FF4C0610A2000F019
:1030400065FC4FF4C0610B2000F060FC00E000BFA5
:1030500000BF1F4850F82400406D40F004001C4998
:1030600051F8241048651A4850F82400D0F8800020
:1030700040F00800164951F82410C1F880000020E3
:10308000134951F82410C8644FF6FF70104951F8E5
:10309000241088600E4850F82400D0F8800040F0DA
:1030A00001000B4951F82410C1F88000084850F87D
:1030B0002400406D40F00100054951F82410486596
:1030C0000020034951F82410486010BD00800440DE
:1030D000583F000010B51648407900F01F00183026
:1030E000322110FB01F11248007900F01F00401C52
:1030F000B1FBF0F00F4908600F48406C012101EB73
:1031000010700C490968B1FBF0F00C4908600A48DE
:10311000406CC0F30360401C06490968B1FBF0F045
:10312000074908604FF4E131012000F01DFD10BD9A
:10313000004006400000FF1F008004400400FF1F05
:103140000800FF1F0CB501464811019001F01F0057
:10315000009006489DF8042050F8220000699DF870
:103160000020D04000F001000CBD0000783F0000BE
:103170007CB54311019300F01F0300932E4B9B6B12
:103180009DF804504FF40074AC4023432A4CA363D1
:103190002A4C9DF8045054F825409DF8005004EB4B
:1031A00085031C6824F4E0641C60244C9DF80450E2
:1031B00054F825409DF8005004EB85031C6844F446
:1031C00080741C6071B11E4C9DF8045054F8254069
:1031D00004F1140364699DF800600125B5402C4397
:1031E0001C600DE0164C9DF8045054F8254004F185
:1031F000140364699DF800600125B540AC431C6070
:10320000C9B162B10E4C9DF8045054F825301C68C9
:103210009DF800600125B5402C431C600BE0084C74
:103220009DF8045054F825301C689DF80060012575
:10323000B540AC431C607CBD00800440643F00008E
:10324000783F00003CB54211019200F01F0200924D
:1032500061B10D4B9DF8044053F8242013689DF88C
:1032600000500124AC40234313600BE0064B9DF853
:10327000044053F8242013689DF800500124AC400A
:10328000A34313603CBD0000783F00000CB5411122
:10329000019100F01F0100919DF800200121914053
:1032A000034A9DF8043052F82320D1600CBD000081
:1032B000783F000010B53720FFF744FF60B1412090
:1032C000FFF740FF40B14420FFF73CFF20B143200F
:1032D000FFF738FF00287DD183A0FEF7E9FE4420E8
:1032E000FFF730FF00287DD1042000F019FC4420B6
:1032F000FFF728FF002875D17E4800680F2854D2B8
:10330000DFE800F0080D12171C21262B30353A3F5C
:1033100044494E004FF47A607749088046E041F214
:1033200088307549088041E041F270707249088028
:103330003CE041F658307049088037E04FF4FA50CD
:103340006D49088032E042F228306B4908802DE058
:1033500042F210706849088028E042F6F820664979
:10336000088023E042F6E060634908801EE043F2F3
:10337000C8206149088019E043F2B0605E490880C6
:1033800014E043F698205C4908800FE04FF47A502F
:10339000594908800AE044F268205749088005E04E
:1033A00044F250605449088000E000BF00BF52481A
:1033B00002885048016851A0FEF77AFE4D48006827
:1033C000401C4C49086008460068092801DD0020BF
:1033D000086001E086E005E000BF4420FFF7B2FE90
:1033E0000028FAD04320FFF7ADFE00287AD1042050
:1033F00000F096FB4320FFF7A5FE002872D1494854
:1034000000680F2854D2DFE800F0080D12171C21C5
:10341000262B30353A3F44494E004FF47A604249FA
:10342000088046E041F288303F49088041E041F29F
:1034300070703D4908803CE041F658303A490880B8
:1034400037E04FF4FA503849088032E042F2283031
:10345000354908802DE042F210703349088028E099
:1034600042F6F8203049088023E042F6E0602E4919
:1034700008801EE043F2C8202B49088019E043F27F
:10348000B0602949088014E043F698202649088056
:103490000FE04FF47A50244908800AE044F2682093
:1034A0002149088005E044F250601F49088000E08F
:1034B00000BF00BF1C4802881A4801681BA0FEF725
:1034C000F7FD18480068401C164908600846006867
:1034D000092801DD0020086000BF4320FFF732FE0D
:1034E0000028FAD010BD00004B4559206F6B0D0A23
:1034F000000000008000FF1F7C00FF1F6D61785FEF
:103500006E756D3D20256420202020537065656414
:103510005049445F5365745F6D6178203D20256498
:10352000200D0A008400FF1F7E00FF1F6D696E5F83
:103530006E756D3D202564202020205370656564E4
:103540005049445F5365745F6D696E203D2025646A
:10355000200D0A0008B572B6FFF7BCFD002201215C
:103560000E20FFF705FE002201210F20FFF700FECD
:10357000002201211020FFF7FBFD4FF4E131012073
:1035800000F0F2FA012200213720FFF7F1FD0122BD
:1035900000214120FFF7ECFD012200214320FFF72D
:1035A000E7FD012200214420FFF7E2FD0122002176
:1035B0001820FFF7DDFD012200211920FFF7D8FDBB
:1035C000012200211B20FFF7D3FD012200211D2035
:1035D000FFF7CEFDFDF732FD00203F237F2201469D
:1035E0000090FDF70DFD10234AA200210846FDF7CB
:1035F0008BFE0C234CA21B210020FDF785FE40F220
:1036000012204D490880084600880A2190FBF1F0FD
:10361000C4B20C2002232246192100906420FDF739
:1036200029FEFDF769FD454800684FF47A7200FBFA
:1036300002F1012000F0E4F802214520FDF774FCBE
:103640004520FDF766FC3D48006800EB8000400027
:103650004FF47A71B0FBF1F42146022000F0D0F86B
:1036600000214620FDF760FC3549432000F04EF96B
:103670003349442000F04AF901215920FDF754FC58
:103680005920FDF746FC002201219A20FFF770FD2A
:10369000002211460920FFF76BFD40F2DC53642243
:1036A00001210846FFF70AFC002342F210720721AD
:1036B0001846FFF703FC002342F21072052118465A
:1036C000FFF7FCFB0220FFF799FCFDF769FB0FE019
:1036D00000F056F901211020FFF7B4FDC82000F0DA
:1036E0001FFA00211020FFF7ADFDC82000F018FAE6
:1036F0001820FFF727FD0028EAD112A0FEF7D8FC1A
:1037000062B600BFC82000F00BFA0E20FFF7BEFD26
:10371000F8E70000484A4D20536D617274436172AE
:103720005465616D000000005365745370656564F5
:1037300056616C75653A00003800FF1F0800FF1FD6
:1037400013010A00696E697420204F4B0D0A0000B6
:1037500010B51048104A12788118032000F0F2F9D1
:103760000D480078401C0C49087008460078012874
:1037700005D108480078A52801D000200870064827
:103780000078032805D1002003490870012003496F
:10379000087010BD9C00FF1F9F00FF1FA000FF1FAF
:1037A00010B5044600212046FDF774F901D82046E3
:1037B00010BD84F00040FBE710B50246012000E098
:1037C00050430B00A1F10104E1B2F9D110BD00009A
:1037D0000A4901EB0011C96841F00102074901EBF8
:1037E0000011CA60054901EB0011896821F001024E
:1037F000024901EB00118A6070470000007103402C
:10380000134AD26B42F40002114BDA630022114BCF
:103810001A60114A02EB001211600F4A02EB00120B
:10382000D26842F001030C4A02EB0012D3600A4A4C
:1038300002EB0012926822F00103074A02EB001229
:1038400093600323044A02EB001293607047000068
:10385000008004400070034000710340014613489B
:1038600000EB01104068C0F1FF32104800EB01107E
:10387000C06800F00100B0B10C4800EB0110C06856
:1038800040F00103094800EB0110C360074800EB5A
:103890000110806820F00103044800EB01108360F0
:1038A0004FF0FF3070471046FCE700000071034006
:1038B0001349C96B41F40001114AD1630021114A37
:1038C00011604A1E104901EB00110A600E4901EB1C
:1038D0000011C96841F001020B4901EB0011CA60F7
:1038E000094901EB0011896821F00102064901EB49
:1038F00000118A600122044901EB00118A607047BF
:103900000080044000700340007103403CB5421148
:10391000019200F01F020092164A926B9DF804403B
:103920004FF40073A3401A43124B9A639DF8003082
:1039300001229A40104B9DF8044053F82430C3F8FC
:10394000A0200D4A9DF8043052F823209DF8003045
:1039500042F82310094B9DF8044053F8243003F13A
:1039600014025B699DF800500124AC40A34313602E
:103970003CBD0000008004408C3F0000A03F0000E0
:10398000F0B585B0322202210820FEF7FAFFADF82B
:103990000000322202210A20FEF7F3FFADF80200F8
:1039A000322202212A20FEF7ECFFADF80400322279
:1039B00002212E20FEF7E5FFADF80600322202219B
:1039C0002D20FEF7DEFFADF80800322202210C2088
:1039D000FEF7D7FFADF80A00322202210B20FEF7D6
:1039E000D0FFADF80C00322202212C20FEF7C9FFD7
:1039F000ADF80E00322202211120FEF7C2FFADF811
:103A00001000322202212B20FEF7BBFFADF812007E
:103A100000201B49086027E019480068022814D1DB
:103A2000BDF80400FCF793FF0646164A164BFCF758
:103A30008EFE0446FCF7ACFF80B2ADF80400BDF882
:103A4000041012A0FEF734FB09E00D4909683DF8A7
:103A500011200B4801680FA0FEF72AFB00BF0848A1
:103A60000068401C06490860054800680A28D3DB46
:103A70000BA0FEF71DFB0AA0FEF71AFB05B0F0BD78
:103A80003400FF1FCDCCCCCCCCCCEC3F5B325D3DC9
:103A9000256409005B25645D3D2564090000000084
:103AA0000D0A000010B50F480088401C0D49088021
:103AB0000846008878280DDA08460088C0EB001117
:103AC00001EB4010084901EB8002BC2307490020AC
:103AD000FFF78EF903480088782802DB01200449AB
:103AE000087010BDE600FF1F6421FF1F91F00F401A
:103AF000E800FF1F00B9704700214FF0E02211617C
:103B000011464861002191610521116100BF4FF00C
:103B1000E021096901F480310029F8D000BFEAE70B
:103B200000B5034607E0064909684FF47A7201FBC5
:103B300002F0FFF7DFFF1800A3F10103F3D100BD8E
:103B40000400FF1F00BF074A52F82020127902F03C
:103B50002002002AF7D0034A52F82020D2790A70B6
:103B6000704700001400FF1F3EB504460D46062CAA
:103B70006AD2DFE804F00314253647587448406BD6
:103B800040F48060724948634FF440716620FFF74B
:103B9000BDFE4FF440716720FFF7B8FE55E06C485A
:103BA000406B40F400606A4948634FF440718120E3
:103BB000FFF7ACFE4FF440718020FFF7A7FE44E012
:103BC0006348406B40F48050614948634FF4407152
:103BD0006320FFF79BFE4FF440716220FFF796FED3
:103BE00033E05B48406B40F40050594948634FF460
:103BF00040715020FFF78AFE4FF440715120FFF7CB
:103C000085FE22E05248806A40F480605049886214
:103C10004FF440714E20FFF779FE4FF440714F2072
:103C2000FFF774FE11E04A48806A40F4006048499A
:103C300088624FF440718920FFF768FE4FF44071AD
:103C40008820FFF763FE00E03EBD00BF414850F80A
:103C50002400C07820F00C003E4951F82410C870B0
:103C60003C4850F8240080783A4951F82410887074
:103C70000CB1012C05D138480068384948430290FE
:103C800004E037480068354948430290280102990A
:103C9000B1FBF0F080B201900198B0F5005F02D363
:103CA00041F6FF70019002984000B0FBF5F10198D9
:103CB000A1EB4010009000981F2801D91F20009010
:103CC000244850F82400007820F01F00214951F8C2
:103CD000241008701F4850F8240000780199C1F39F
:103CE000042108431B4951F824100870194951F860
:103CF000241001984870174850F82400807A20F06A
:103D00001F00144951F824108872124850F82400FA
:103D1000807A009901F01F0108430E4951F82410E0
:103D200088720C4850F82400007C40F08800094953
:103D300051F824100874074850F82400C07840F067
:103D40000C00044951F82410C87000BF7CE7000043
:103D5000008004401400FF1F0400FF1F40420F00BA
:103D60000800FF1F00BF064A52F82020127902F017
:103D70008002002AF7D0024A52F82020D171704701
:103D80001400FF1F2DE9F04F8DB000200B908246EC
:103D90000A90142105A8FCF760FB0020049008E0BD
:103DA0000120514988660A20FFF7A4FE00204E49F1
:103DB00088664E4800680028F2D00020FFF778FDA2
:103DC00000BF0020FFF74AFD4949884203D2474817
:103DD00000680028F5D10020FFF740FD0490002086
:103DE000FFF7F6FC0498FCF7B2FD8046414A424BCF
:103DF000FCF7ADFCCDE90001FCF726FE8346FCF79D
:103E0000E0FD3E4A3E4BCDE90201FCF7A0FC064630
:103E10003C4A3D4BFCF79BFC0446FCF715FE3B4936
:103E200008603B480078401C394908700846007813
:103E3000002855DD00200870824608E035490AF167
:103E4000010051F8200041F82A000AF1010ABAF1F4
:103E5000050FF3DB2D4800682E4948610A4651687A
:103E60001068FCF717FE3BD22A4A91685068FCF7AD
:103E700011FE35D2274AD1689068FCF70BFE2FD28D
:103E8000244A1169D068FCF705FE29D2214A5169FC
:103E90001069FCF7FFFD23D21FA0FEF709F92349A3
:103EA0001A480068FCF7ECFD0FD221A0FEF700F9DC
:103EB000462000F01F02012191404209920002F1C8
:103EC000E022C2F8001100BF0AE0462000F01F0205
:103ED000012191401D4A430942F8231000BF00BF51
:103EE0000DB0BDE8F08F00000020FE432402FE4329
:103EF000A0BB0D00B98D06F01648F13FCDCCCCCC5F
:103F0000CCCCFC3F2D431CEBE2361A3F0401FF1FD3
:103F10005C01FF1FD07AFF1F6C69616E20787520ED
:103F20006A69616E207869616F0D0A000000A04126
:103F30006A696E7275202068656E67206475616EAF
:103F4000206C75207A68616E670D0A0080E100E0E0
:103F500000B0034000B00B400080034000900340DD
:103F600000800B400090044000A0044000B00440DA
:103F700000C0044000D0044000F00F4040F00F406B
:103F800080F00F40C0F00F4000F10F40009004405F
:103F900000A0044000B0044000C0044000D0044031
:103FA00000F00F4040F00F4080F00F40C0F00F4095
:103FB00000F10F40000000000000000000000000C1
:103FC000000000003F400000000000000000300042
:103FD000400030004000000009000BC03D000BC055
:103FE0003D00090018C024407FE0224031800000DD
:103FF000180024C01B000D803240018003801C404B
:1040000027401C80074000401000600000000000B6
:10401000000000000000000000001F802040402041
:104020000000402020401F80000000000900060022
:104030001F80060009000000040004003F80040007
:1040400004000000001000600000000000000000FC
:10405000040004000400040004000000000000400C
:104060000000000000000000002001C00600380031
:10407000400000001F802040204020401F800000A2
:10408000000010403FC000400000000018C0214068
:10409000224024401840000010802040244024404A
:1040A0001B80000002000D0011003FC00140000015
:1040B0003C80244024402440238000001F80244072
:1040C00024403440038000003000200027C0380026
:1040D000200000001B802440244024401B8000005E
:1040E0001C0022C0224022401F800000000000006F
:1040F0000840000000000000000000000460000014
:1041000000000000000004000A0011002080404070
:1041100009000900090009000900000000004040F2
:10412000208011000A000400180020002340240011
:10413000180000001F802040274029401F40000039
:10414000004007C039000F0001C0004020403FC0C0
:10415000244024401B8000001F802040204020403D
:104160003080000020403FC0204020401F800000E1
:1041700020403FC024402E4030C0000020403FC0BF
:1041800024402E00300000000F001080204022400C
:104190003380020020403FC0040004003FC02040A4
:1041A000204020403FC020402040000000602020F0
:1041B00020203FC02000200020403FC024400B00B2
:1041C00030C0204020403FC020400040004000C0A0
:1041D0003FC03C0003C03C003FC0000020403FC047
:1041E0000C4023003FC020001F8020402040204082
:1041F0001F80000020403FC0244024001800000021
:104200001F802140214020E01FA0000020403FC02F
:104210002440260019C0004018C0244024402240F9
:1042200031800000300020403FC0204030000000BE
:1042300020003F80004000403F80200020003E00E2
:1042400001C0070038002000380007C03C0007C04C
:1042500038000000204039C0060039C0204000006E
:104260002000384007C0384020000000304021C006
:104270002640384020C00000000000007FE04020C1
:1042800040200000000070000C000380004000008F
:104290000000402040207FE00000000000002000DF
:1042A000400020000000000000100010001000106E
:1042B000001000100000000040000000000000009E
:1042C000000002800540054003C0004020003FC0C0
:1042D00004400440038000000000038004400440C8
:1042E0000640000000000380044024403FC000401E
:1042F000000003800540054003400000000004402A
:104300001FC0244024402000000002E0055005505A
:104310000650042020403FC00440040003C0004079
:104320000000044027C00040000000000010001002
:10433000041027E00000000020403FC001400700BB
:1043400004C00440204020403FC000400040000026
:1043500007C0040007C0040003C00000044007C0F9
:104360000440040003C000400000038004400440F7
:1043700003800000041007F0045004400380000094
:10438000000003800440045007F00010044007C000
:104390000240040004000000000006400540054003
:1043A00004C00000000004001F8004400040000022
:1043B000040007800040044007C0004004000700DC
:1043C00004C0018006000400060001C0070001C00F
:1043D00006000000044006C0010006C004400000C2
:1043E0000410071004E001800600040000000440EF
:1043F00005C00640044000000000000004007BE00F
:1044000040200000000000000000FFF0000000005D
:10441000000040207BE0040000000000400080001D
:1044200040002000200040000000000000000000CC
:1044300000000000000000000000000000001FCC91
:10444000000C0000000000000000080030006000C8
:104450000800300060000000022003FC1E20022043
:1044600003FC1E200220000000000E1811043FFF74
:1044700010840C78000000000F0010840F3800C07A
:10448000077818840078000000780F8410C4112485
:104490000E9800E400840008080068007000000026
:1044A000000000000000000000000000000007E025
:1044B00018182004400200000000400220041818D0
:1044C00007E00000000000000240024001800FF001
:1044D00001800240024000000080008000800FF850
:1044E00000800080008000000001000D000E000030
:1044F000000000000000000000000080008000803C
:1045000000800080008000800000000C000C000093
:10451000000000000000000000000006001800601D
:104520000180060018002000000007F008081004B1
:104530001004080807F000000000080408041FFC2D
:10454000000400040000000000000E0C10141024F1
:10455000104411840E0C000000000C18100411040B
:10456000110412880C700000000000E003200424F5
:1045700008241FFC0024000000001F981084110470
:104580001104108810700000000007F00888110462
:10459000110418880070000000001C00100010FCBE
:1045A00013001C001000000000000E38114410849D
:1045B000108411440E38000000000700088C1044DD
:1045C0001044088807F00000000000000000030C01
:1045D000030C0000000000000000000000010106C4
:1045E00000000000000000000000008001400220E8
:1045F00004100808100400000220022002200220FB
:10460000022002200220000000001004080804100C
:10461000022001400080000000000E001200100C7B
:10462000106C10800F00000003E00C1813E4142439
:1046300017C4082807D000000004003C03C41C4035
:10464000074000E4001C000410041FFC11041104C6
:1046500011040E880070000003E00C181004100410
:10466000100410081C10000010041FFC100410049B
:104670001004080807F0000010041FFC11041104C6
:1046800017C410040818000010041FFC11041100C6
:1046900017C010000800000003E00C1810041004FC
:1046A00010441C780040000010041FFC108400809F
:1046B000008010841FFC10040000100410041FFC74
:1046C000100410040000000000030001100110019C
:1046D0001FFE10001000000010041FFC11040380D6
:1046E0001464181C1004000010041FFC10040004C3
:1046F00000040004000C000010041FFC1F0000FC5C
:104700001F001FFC1004000010041FFC0C04030019
:1047100000E010181FFC100007F008081004100437
:104720001004080807F0000010041FFC108410801B
:10473000108010800F00000007F0081810241024CB
:10474000101C080A07F2000010041FFC11041100DD
:1047500011C011300E0C000400000E1C1104108456
:10476000108410441C3800001800100010041FFCB6
:10477000100410001800000010001FF810040004BE
:10478000000410041FF8100010001E0011E0001CAF
:10479000007013801C0010001FC0103C00E01F00C0
:1047A00000E0103C1FC000001004180C163401C0BB
:1047B00001C01634180C100410001C00130400FC77
:1047C00013041C00100000000804101C1064108466
:1047D00013041C04101800000000000000007FFEFD
:1047E0004002400240020000000030000C00038044
:1047F0000060001C00030000000040024002400274
:104800007FFE0000000000000000000020004000CB
:1048100040004000200000000001000100010001F4
:1048200000010001000100010000400040002000E4
:104830000000000000000000000000980124014476
:104840000144014400FC000410001FFC0088010426
:10485000010400880070000000000070008801045E
:1048600001040104008800000000007000880104B9
:10487000010411081FFC0004000000F80144014479
:104880000144014400C800000000010401040FFCC1
:104890001104110411001800000000D6012901299B
:1048A000012901C90106000010041FFC0084010059
:1048B0000100010400FC000400000104190419FCBB
:1048C00000040004000000000000000300010101DA
:1048D000190119FE0000000010041FFC0024004014
:1048E00001B4010C010400000000100410041FFCBE
:1048F0000004000400000000010401FC01040100A8
:1049000001FC0104010000FC010401FC0084010021
:104910000100010400FC0004000000F8010401048F
:104920000104010400F80000010101FF00850104F9
:10493000010400880070000000000070008801047D
:104940000104010501FF00010104010401FC0084D0
:104950000104010001800000000000CC01240124BA
:10496000012401240198000000000100010007F863
:104970000104010400000000010001F8000400042B
:104980000004010801FC0004010001800170000C1A
:10499000001001600180010001F0010C003001C035
:1049A0000030010C01F0010000000104018C0074D2
:1049B0000170018C01040000010101810171000EF0
:1049C000001801600180010000000184010C013425
:1049D00001440184010C0000000000000000000000
:1049E00001003EFC40024002000000000000000008
:1049F000FFFF0000000000000000400240023EFCFB
:104A00000100000000000000000060008000800045
:104A100040004000200020000000000000000000D6
:104A20000000000000000000000000000000000086
:104A30000000000000000000000000000000000076
:104A400000000000000000000000000F80380FFE92
:104A5000380F803800000000000000000000000057
:104A60000000000000000100000600000C000038FB
:104A700000003100000600000C000038000030008B
:104A8000000000000000000061800067F807F98066
:104A90000061800061800061800061800067F8072C
:104AA000F98000618000000000000000000001C0EB
:104AB000E003E0F00630080418081FFFFE040E08AB
:104AC0000787F00381E000000000000001F000060D
:104AD0000C00040408060C7001F9C0000E00003B35
:104AE000E000EC18070808040C180003E0000000C0
:104AF0000001E00007F003F818041C080417080779
:104B0000E1D003C0E00023B0003C08002008000012
:104B10001000000000000001000031000032000021
:104B20001C00000000000000000000000000000069
:104B30000000000000000000000000000000000075
:104B400000000000000000007F0001FFC00780F0AF
:104B50000C001810000420000200000000000020DB
:104B600000021000040C00180780F001FFC0007F55
:104B70000000000000000000000000000000000035
:104B8000000000004200006600006600003C0000DB
:104B9000180003FFC0001800003C0000660000661B
:104BA00000004200000000000800000800000800AB
:104BB00000080000080001FFC00008000008000015
:104BC00008000008000008000000000000010000CC
:104BD0003100003200001C00000000000000000056
:104BE00000000000000000000000000000000000C5
:104BF0000800000800000800000800000800000885
:104C00000000080000080000080000080000000084
:104C100000000000000000003800003800003800EC
:104C20000000000000000000000000000000000084
:104C30000000000000000000000600001C000070E2
:104C4000000180000E0000380000C0000700001CBA
:104C50000000300000000000000000007F8001FF25
:104C6000E00380700600180400080400080600181D
:104C700003807001FFE0007F800000000000000062
:104C8000000001000801000801000803FFF807FF09
:104C9000F800000800000800000800000000000004
:104CA00000000001C03802C0580400980401180434
:104CB0000218040418061C1803F81801E0F8000094
:104CC0000000000000000001C0E003C0F004000884
:104CD00004080804080806180803F41801E7F0009F
:104CE00001E0000000000000000000000300000DD3
:104CF0000000110000610000810803010807FFF8AF
:104D00000FFFF8000108000108000000000000008B
:104D100000E007FCD0060808061008061008061078
:104D200008061838060FF00607C000000000000053
:104D3000000000003F8001FFE003843002081804F7
:104D40001008041008041008071810030FF00007DB
:104D5000C000000000000000000003C000070000C9
:104D60000600000600F80607F806180006E000072F
:104D7000000006000000000000000001E1E003F771
:104D8000F0063410041808041808040C08040C0871
:104D900006161803F3F001C1E00000000000000057
:104DA000F80003FC30030638040208040208040279
:104DB000080404100308F001FFC0007F0000000099
:104DC00000000000000000000000000000000000E3
:104DD00070380070380070380000000000000000DB
:104DE00000000000000000000000000000000000C3
:104DF00000000000301A00301C000000000000001D
:104E0000000000000000000000000000000000089A
:104E100000001400002200004100008080010040DA
:104E2000020020040010080008000000000000003C
:104E300021000021000021000021000021000021AC
:104E400000002100002100002100002100000000DE
:104E5000000000000000080008040010020020010B
:104E60000040008080004100002200001400000883
:104E70000000000000000003C00004C000040000A7
:104E8000080038080F380808380810000C300007F0
:104E9000E00003C000000000000000003F8000FFB1
:104EA000E0038070020F1006708804C08804830835
:104EB000047F8802C09003012000FE40000008002B
:104EC00000180001F8003E0801C20007020007E2D6
:104ED0000000FE00001FC80001F8000038000008B4
:104EE00004000807FFF807FFF8040808040808048E
:104EF000080804080806180803F41801E7F0000180
:104F0000E0000000000000003F8001FFE00380702F
:104F10000200180400080400080400080400100639
:104F200000200780C000000004000807FFF807FF0A
:104F3000F804000804000804000804001802001027
:104F400003807001FFE0007F80000000040008077C
:104F5000FFF807FFF8040808040808040808040814
:104F600008043E0804000806001801006000000064
:104F700004000807FFF807FFF80408080408000405
:104F80000800040800043E0006000006000001803E
:104F900000000000000000003F8001FFE00380707F
:104FA0000600180400080402080402080203F007BF
:104FB00083F000020000020004000807FFF807FF6A
:104FC000F8040808000800000800000800000800B5
:104FD00004080807FFF807FFF804000800000000B5
:104FE000000004000804000804000807FFF807FF99
:104FF000F804000804000804000800000000000095
:105000000000000000060000070000010400010489
:10501000000104000307FFFE07FFFC04000004007A
:105020000004000004000807FFF807FFF8040C085C
:10503000001800003E0004C7800503C80600F804FD
:10504000003804001800000804000807FFF807FFF4
:10505000F80400080000080000080000080000082C
:1050600000000800001800006000000004000807AD
:10507000FFF807800807FC00007FC00003F8000766
:10508000C000780007800807FFF807FFF804000851
:1050900004000807FFF807000803C00000E0000054
:1050A0003800001E000007000001C00400F007FFE8
:1050B000F8040000000000007F8001FFE003807022
:1050C0000600180400080400080600180300300158
:1050D000FFE0007F8000000004000807FFF807FFE2
:1050E000F804040804040004040004040004040098
:1050F000060C0003F80001F00000000000000000B2
:105100007F8001FFE00380700600880400880400AF
:10511000C806003C03003E01FFE6007F840000005B
:1051200004000807FFF807FFF80408080408000453
:105130000C00040F00040BC00610F003F03801E06F
:105140000800000800000001E0F803F0300630100D
:10515000041808041808040C08040C0802061802B5
:1051600007F00781E0000000018000060000040055
:105170000004000004000807FFF807FFF804000817
:105180000400000400000600000180000400000785
:10519000FFE007FFF004001800000800000800000E
:1051A0000800000800000804001007FFE0040000E9
:1051B00004000006000007E00007FE00041FE000F6
:1051C00001F80000380001E0043E0007C0000600BE
:1051D0000004000004000007E00007FFC0041FF8FF
:1051E0000007C007F80007FF80043FF80007C0046D
:1051F000F80007000004000000000004000806009A
:105200001807C07805F1C8003E00001F800463E85D
:105210000780F806001804000800000004000006DB
:10522000000007800007E008047C08001FF8000762
:10523000F800180804E00807000006000004000059
:105240000000000100080600380400F80403E80428
:105250000F08047C0805F00807C0080700180400C0
:1052600060000000000000000000000000000000DE
:105270000000003FFFFE200002200002200002206C
:1052800000022000020000000000000000000800F2
:105290000007000000C0000038000006000001C048
:1052A00000003000000E00000100000000000000BF
:1052B0000000200002200002200002200002200046
:1052C000023FFFFE000000000000000000000000A0
:1052D0000000000000000000000800001000003086
:1052E0000000200000300000100000080000000056
:1052F00000000000000001000001000001000001AA
:105300000000010000010000010000010000010098
:10531000000100000100000100000000000000008A
:10532000002000002000001000001000000000001D
:10533000000000000000000000000000000000006D
:1053400000F00019F8001B180022080026080024AD
:1053500008002410003FF8001FF8000008000018A3
:1053600000000004000007FFF80FFFF0001818000D
:105370001008002008002008003018001FF0000F5F
:10538000C00000000000000007C0001FF00018303F
:10539000002008002008002008003C08001C100025
:1053A00000600000000000000000000007C0001FB7
:1053B000F000381800200800200800200804101011
:1053C00007FFF80FFFF000001000000000000000D1
:1053D00000000007C0001FF0001230002218002259
:1053E00008002208003208001E10000E20000000F5
:1053F00000000000200000200800200801FFF80342
:10540000FFF80620080420080420080720000300F5
:105410000000000000000000000E000E6E001FF3F0
:105420000031B10020B10020B1003191001F130004
:105430002E1E00200E00300000000004000807FFB0
:10544000F80FFFF8001008002000002000002008DE
:10545000003FF8001FF800000800000000000000F6
:105460000000002008002008002008063FF8063F42
:10547000F80000080000080000080000000000001C
:1054800000000000000000000300000300200100F5
:105490002001002003063FFE063FFC000000000044
:1054A0000000000000000004000807FFF80FFFF8EC
:1054B000000188000300002FC00038F800203800E9
:1054C00020080000080000000000000000000400A8
:1054D0000804000804000807FFF80FFFF8000008A0
:1054E0000000080000080000000000000020080084
:1054F0003FF8003FF8001008002000003FF8003F90
:10550000F8001008002000003FF8003FF8000008F5
:10551000000000002008003FF8003FF800100800DD
:105520001000002000002008003FF8001FF80000D5
:10553000080000000000000007C0000FF000183055
:105540000030080020080020080030080018300053
:105550000FF00007C0000000000000002001003F25
:10556000FF003FFF00101100200900200800200864
:10557000003038001FF0000FC000000000000000E5
:1055800007C0001FF0003818002008002008002085
:1055900009001011001FFF003FFF00000100000084
:1055A000002008002008002008003FF8003FF80015
:1055B000080800100800200800200000300000301B
:1055C00000000000000000000000000C78001E1821
:1055D00000330800230800210800218800219800DA
:1055E00030F00038600000000000000020000020C3
:1055F0000000200000FFF003FFF800200800200852
:105600000020080000300000000000000000000042
:105610002000003FF0007FF80000180000080000A4
:1056200008002010003FF8007FF00000100000008C
:10563000000000002000003000003C00003F80001F
:1056400023F0000078000070002380003C00003050
:1056500000002000002000003C00003FE00023F894
:105660000000E0002700003E00003FE00021F800BD
:1056700001E0003E000020000000000020080020A3
:1056800008003838003E680027800003C8002CF866
:10569000003838002018002008000000000000003A
:1056A0002000003003003C01003F830023EC000099
:1056B00070002380003C000020000020000000005B
:1056C0000000000000000038080020380020F8002A
:1056D00023E8002F88003E0800380800201800004A
:1056E000700000000000000000000000000000004A
:1056F0000000000008000014001FF7FC3000062026
:105700000002000000000000000000000000000097
:1057100000000000000000000000FFFFFF0000008C
:105720000000000000000000000000000000000079
:1057300000002000023000061FF7FC0014000008E3
:105740000000000000000000000000000000000059
:105750000000001800006000004000004000002031
:1057600000001000000800000400000400000C000D
:1057700000100000945700000000FF1F64010000AB
:10578000140D0000145800006401FF1F84890000FC
:10579000E0200000326469049114A006401AB004AD
:1057A0001AC0041AD0041BA00E1019043102370AC3
:1057B000454260E53D65A69B443BF0087A45581B91
:1057C000A00F031008780578055802F045333333ED
:1057D0003F1A0102211202142C0103123212041288
:1057E000BC120512783206320712085220492421D1
:1057F000294E320432058924C11C3333B3583E800C
:105800003FCDCC8C084904912A014A81293E813A36
:0458100002640136F7
:0400000500000411E2
:00000001FF
